{
  "transactions": [
    {
      "hash": "0x5f83b29c3788b06b72b721122849cd855fb057622e05f9c80f4b99799675c8ef",
      "transactionType": "CALL",
      "contractName": "ZKBlobstream",
      "contractAddress": "0xb27328047789FA2320B43e3Ecc78Ec3eFf1DC0eA",
      "function": "setGenesisHeader(uint64,bytes32)",
      "arguments": [
        "10000",
        "0xa0123d5e4b8b8888a61f931ee2252d83568b97c223e0eca9795b29b8bd8cba2d"
      ],
      "transaction": {
        "type": "0x02",
        "from": "0xded0000e32f8f40414d3ab3a830f735a3553e18e",
        "to": "0xb27328047789fa2320b43e3ecc78ec3eff1dc0ea",
        "gas": "0x10a41",
        "value": "0x0",
        "data": "0xc3e551770000000000000000000000000000000000000000000000000000000000002710a0123d5e4b8b8888a61f931ee2252d83568b97c223e0eca9795b29b8bd8cba2d",
        "nonce": "0x1768",
        "accessList": []
      },
      "additionalContracts": [],
      "isFixedGasLimit": false
    },
    {
      "hash": "0x865bb2fe63e10a4bb58411a9580e77ab65c1152f3275ce66d664032f7bd103c7",
      "transactionType": "CALL",
      "contractName": "ZKBlobstream",
      "contractAddress": "0xb27328047789FA2320B43e3Ecc78Ec3eFf1DC0eA",
      "function": "updateFunctionId(string,bytes32)",
      "arguments": [
        "combinedStep",
        "0xde939452e6506cc08d1d7b32ffe1b82cf9d96829b7aa30f0b542f1050651c43c"
      ],
      "transaction": {
        "type": "0x02",
        "from": "0xded0000e32f8f40414d3ab3a830f735a3553e18e",
        "to": "0xb27328047789fa2320b43e3ecc78ec3eff1dc0ea",
        "gas": "0xf42b",
        "value": "0x0",
        "data": "0x39a4d84b0000000000000000000000000000000000000000000000000000000000000040de939452e6506cc08d1d7b32ffe1b82cf9d96829b7aa30f0b542f1050651c43c000000000000000000000000000000000000000000000000000000000000000c636f6d62696e6564537465700000000000000000000000000000000000000000",
        "nonce": "0x1769",
        "accessList": []
      },
      "additionalContracts": [],
      "isFixedGasLimit": false
    },
    {
      "hash": "0xae0c19d837cc15e14d8271deacb56acf8f3ff00e036d84c47125496a542fb9a1",
      "transactionType": "CALL",
      "contractName": "ZKBlobstream",
      "contractAddress": "0xb27328047789FA2320B43e3Ecc78Ec3eFf1DC0eA",
      "function": "updateFunctionId(string,bytes32)",
      "arguments": [
        "combinedSkip",
        "0x6e6d644f9af0228e739c594f889a49f13283043e7f7c0a55379ca212ad0b4609"
      ],
      "transaction": {
        "type": "0x02",
        "from": "0xded0000e32f8f40414d3ab3a830f735a3553e18e",
        "to": "0xb27328047789fa2320b43e3ecc78ec3eff1dc0ea",
        "gas": "0xf42b",
        "value": "0x0",
        "data": "0x39a4d84b00000000000000000000000000000000000000000000000000000000000000406e6d644f9af0228e739c594f889a49f13283043e7f7c0a55379ca212ad0b4609000000000000000000000000000000000000000000000000000000000000000c636f6d62696e6564536b69700000000000000000000000000000000000000000",
        "nonce": "0x176a",
        "accessList": []
      },
      "additionalContracts": [],
      "isFixedGasLimit": false
    }
  ],
  "receipts": [],
  "libraries": [],
  "pending": [
    "0x5f83b29c3788b06b72b721122849cd855fb057622e05f9c80f4b99799675c8ef",
    "0x865bb2fe63e10a4bb58411a9580e77ab65c1152f3275ce66d664032f7bd103c7",
    "0xae0c19d837cc15e14d8271deacb56acf8f3ff00e036d84c47125496a542fb9a1"
  ],
  "returns": {},
  "timestamp": 1697148724,
  "chain": 5,
  "multi": false,
  "commit": "590c211"
}